:020000040800F2
:1000000080350020AD02000833470008774500081E
:1000100031470008B9030008155E00080000000021
:100020000000000000000000000000007949000806
:100030001117000800000000354700087B49000840
:10004000C7020008C7020008C7020008C70200086C
:10005000C7020008C7020008C7020008C70200085C
:10006000C7020008C7020008C7020008C70200084C
:10007000C7020008C7020008C7020008C70200083C
:10008000C7020008C7020008C7020008C70200082C
:10009000C7020008C7020008C7020008C70200081C
:1000A000C7020008C7020008C7020008C70200080C
:1000B000C7020008B14A0008C7020008C7020008CA
:1000C000C7020008C7020008C7020008C7020008EC
:1000D000C7020008095E0008C7020008C70200083E
:1000E000C7020008C702000800000000C70200089D
:1000F000C7020008C7020008C7020008C7020008BC
:10010000C7020008C7020008C7020008C7020008AB
:10011000C7020008F14B0008C7020008C702000828
:10012000C7020008C7020008C7020008C70200088B
:10013000C7020008C7020008C7020008C70200087B
:1001400000000000000000000000000000000000AF
:10015000C7020008C7020008C7020008C70200085B
:10016000C7020008C7020008C7020008C70200084B
:10017000C7020008C7020008C7020008000000000C
:10018000C7020008C7020008C7020008C70200082B
:10019000C7020008C7020008C7020008C70200081B
:1001A000C7020008C7020008C7020008C70200080B
:1001B000C7020008C7020008C7020008C7020008FB
:1001C000C7020008C7020008C7020008C7020008EB
:1001D000C7020008C7020008C7020008C7020008DB
:1001E000C7020008C7020008C7020008C7020008CB
:1001F000C7020008C7020008C7020008C7020008BB
:10020000C7020008C7020008C7020008C7020008AA
:10021000C7020008C7020008C7020008C70200089A
:10022000C7020008C7020008C7020008000000005B
:10023000C7020008C702000800000000C70200084B
:10024000C7020008C7020008C7020008C70200086A
:10025000C7020008C7020008C7020008C70200085A
:10026000C7020008C7020008C7020008C70200084A
:10027000C7020008C7020008C7020008000000000B
:10028000C7020008C7020008C702000800000000FB
:1002900000000000C7020008DFF80CD000F07AF878
:1002A000004800470D62000880350020064880475E
:1002B00006480047FEE7FEE7FEE7FEE7FEE7FEE74B
:1002C000FEE7FEE7FEE7FEE7154A00089902000890
:1002D0002DE9F05F0546002092469B46884606467B
:1002E000814640241BE0284641464746224600F00E
:1002F00041F853465A46C01A914110D31146184648
:10030000224600F028F82D1A67EB01084F462246D6
:100310000120002100F01FF817EB00094E41201EBC
:10032000A4F10104DFDC484631462A464346BDE8D5
:10033000F09FD2B201E000F8012B491EFBD27047BA
:100340000022F6E710B513460A4604461946FFF7A1
:10035000F0FF204610BD202A04DB203A00FA02F10B
:10036000002070479140C2F1200320FA03F31943A3
:1003700090407047202A04DB203A21FA02F0002145
:10038000704721FA02F3D040C2F1200291400843A5
:1003900019467047064C074D06E0E06840F001033F
:1003A00094E8070098471034AC42F6D3FFF778FF83
:1003B000A8630008C8630008FEE700002DE9F84FB5
:1003C000FE484FF00008FF4DFD4C05F57A66A0F899
:1003D0000C80416BC0F834808164A0F812800EE07C
:1003E000A35CB3541B2B08D1A3185B785B2B04D1FF
:1003F00087897B1C25F827208381521C4282428AF0
:100400008A42EDD30122428283890BE005EB820709
:10041000541C35F8222037F804CCA2EB0C0227F844
:10042000022C44821C46428A9A42EFD3012B0CD9FB
:1004300005EB840232F8083C32F8064CA1EB0301CC
:10044000A1EB040122F8021C01E000D16980C3463F
:100450000446A0F81280FDE335F8210005EB810287
:1004600000F10201618352881044A083A182F2E36B
:10047000335C4A2B0BD0532B19D0432B35D0372B61
:1004800067D06D2B7ED03B2B31467CD027E13044AA
:10049000417863290AD181784129FBD1C178492962
:1004A000F8D100795228F5D1C4F828B044E230449C
:1004B00041784529FAD181784C29F7D1C17845296D
:1004C000F4D101794329F1D141795429EED1C1798F
:1004D0004D29EBD1017A4529E8D1417A4E29E5D160
:1004E000807A5528E2D101207DE0321851784F29D9
:1004F0002ED191784E292BD1D178462928D1117946
:10050000492925D15179472922D1917955291FD1DE
:10051000D17952291CD1117A452919D1917A4329CF
:1005200016D1D17A482913D1117B412910D1517BA1
:100530004E290DD1917B4E290AD1D17B452907D176
:10054000117C4C2904D1517C532901D10221A16293
:10055000CDE0304441786D29A8D181780029A5D11A
:10056000C1782029A2D101794D299FD141794F2904
:100570009CD18179522999D1C179452996D1017AA5
:100580001B2901E006E030E090D1407A5B288DD154
:10059000032028E031184B78202B7DD1887845281E
:1005A00084D1C8784E2885D10879542885D14879D6
:1005B000452885D18879522885D1C879202885D1C8
:1005C000087A4C2885D1487A412885D1887A4228F2
:1005D00085D1C87A452885D1087B4C28BCD1487B79
:1005E0002028B9D10420A062A6E10F1897F803C013
:1005F000BCF1480F04D197F80480B8F1000F05D082
:10060000BF78482F72D1BCF1000F6FD1E0820BE0B0
:1006100011F807C0BCF13B0F03D0BCF1480F1DD04F
:1006200000E0E7837F1CE782E78A9742F0D3E78BFD
:1006300001EB070C1CF8017C303F0A2F23D21CF879
:10064000028CA8F12F0CBCF10C0F09D3DFF86CC1A0
:100650000CF1400CACF80270A78414E02784E6E7A4
:10066000A8F1300CBCF10A0F0DD2DFF850810CEB71
:100670008C0908F1400807EB4909A8F800C0A8F860
:100680000270A4F82490278C01EB070C1CF8017C65
:10069000303F0A2F23D200E043E01CF8028CA8F17F
:1006A0002F0CBCF10C0F06D3DFF810C10CF1440C79
:1006B000ACF8027012E0A8F12A0CBCF1100F0ED2B7
:1006C000A8F1300CDFF8F48008F144080CEB8C0939
:1006D000A8F800C0A8F8027007EB4907E784432B8D
:1006E00005D06D2B1DD0442B46D098E09BE03118EF
:1006F00011F8013CA3F130000A2806D211F8021CBF
:10070000A1F12F020C2A01D3207115E1A1F13000D3
:100710000A280CD201EB8101F02000EB41001844C3
:10072000F2E731184F780B2F02D033463FB103E187
:100730008878082802D16079401C6071FCE08978D3
:100740000B2901D0202952D1801C03E0195C2029FB
:1007500010D0401CE08280B29042F7D320790F285D
:10076000208BA2EB000106EB0002A08CCBB2E18C47
:100770002CD838E02083F1E70B185F780B2F36D1A7
:100780009F78A7BBDB78202B01D08BB3D4E0A37973
:100790005B1CC01CDFB2A77103E00B5C202B17D0E1
:1007A000401CE08280B29042F7D320790F2811D903
:1007B000A08C238B3844D71AF21805E000000020E3
:1007C000242000206C000020E18CFBB2401C0AE0D9
:1007D0002083EAE7208BB4F824C0131AE18C321886
:1007E0000CEB0700DBB2491C05F040FC17E066E0AB
:1007F000FFE76079401CC3B2E371A18C102908D0D7
:10080000E28C32B12079521C401E0090592005F034
:100810006BFB84F807B084F805B084F806B0A08AB2
:10082000305C3B284BD1A28AB318D978482903D130
:100830001F791B2F00D02FB9987848287CD11B290D
:100840007AD0E1B3E2822046A38B08E0725C3B2AB7
:1008500002D0482A0BD000E0C183491CC182C18A62
:100860009942F3D3018C3A225F46894612E0018413
:10087000F8E700BF16F801C0BCF1200F09D106EB64
:10088000010C9CF80180B8F1080F02D172548CF869
:100890000170491CC18289B29942EBD3C18B721895
:1008A00012F8011C30390A2916D212F8022CA2F1D2
:1008B0002F070C2F04D3FE4A518081840CE03BE0CB
:1008C000303A0A2A08D2FA4F02EB820C01EB4C0CA8
:1008D0003A807980A0F824C006EB090212F8011CC6
:1008E00030390A291CD212F8027CA7F12F0CBCF176
:1008F0000C0F04D3EE4F3F1D7980C18410E0303FD0
:100900000A2F0DD2DFF8A8C307EB87080CF1040CFF
:1009100001EB4808ACF80070ACF80210A0F8268093
:100920005178082908D0A3EB0901491ECBB2C18C2C
:10093000A08C521C05F09AFBA08A321812F8021CF7
:100940001B2915D112F8011C5B2911D1315C6D29CD
:100950000ED151781B290BD00B2909D06084521C71
:10096000217F081AE18C401EC3B2A08C05F07EFBEB
:10097000A18A701810F8032C2A2A21D110F8022C11
:100980001B2A1DD110F8012C5B2A19D1725C312A67
:1009900016D142786D2A7DD180781B287BD0A06A41
:1009A000042879D1491C88B26084217F3218521CF6
:1009B000081AE18C401E491CC3B2A08C05F056FBFE
:1009C000A18A705C3B2868D17018C278482A05D18A
:1009D00003791B2B02D143795B2B07D08378482BFB
:1009E0007AD11B2AFCD100795B28D4D1E182A18B7A
:1009F00008E0325C3B2A02D0482A0DD000E0E083B8
:100A0000401CE082E08A8842F3D3B4F820803A2385
:100A10005F46A4F816800EE02084F6E7325C202AB8
:100A200007D1321892F801C0BCF1080F01D133543C
:100A30005770401CE082E08A8842EFD3E08B311887
:100A400011F8010C30380A2815D211F8022CA2F145
:100A50002F010C2903D396494880A0840BE0A2F112
:100A600030010A2907D2924A01EB810300EB4303CC
:100A700011805080A38406EB080111F8010C303876
:100A80000A281CD211F8022CA2F12F010C2909D33B
:100A9000874903E002E2F8E3F8E376E1091D4880C4
:100AA000E0840CE0A2F130010A2908D2804A01EB6F
:100AB0008103121D00EB430311805080E384A146A3
:100AC000A18C0D2907D1E28C2046272A05D02D2A9A
:100AD00061D0332A7ED032E1F4E3826A022A7AD1ED
:100AE0004278521CD2B24270022A74D189F8017045
:100AF000022389F80270282289F803705B204FF0E6
:100B00000508CDF8008005F0EFF9B9F82610642348
:100B1000B9F8240067A2491C05F010FBCDF800804D
:100B20000223B9F826205A20B9F82410D21D05F066
:100B3000DBF9B9F826106423B9F824005FA2C91DB7
:100B400005F094FACDF800800223B9F82620592048
:100B5000B9F82410D21D05F0C7F9CDF800800223A2
:100B6000B9F826205A20B9F824100D3205F0BCF946
:100B7000B9F826106423B9F8240052A20D3105F00B
:100B800075FACDF800800223B9F826205920B9F86B
:100B900024100D32D1E0826A022A1CD18278521CC4
:100BA000D2B28270022A16D189F80170022389F824
:100BB00002702E2289F803705B204FF00508CDF8F3
:100BC000008005F091F9B9F826106423B9F82400E3
:100BD0003AA201E043E0B2E0491C05F0AFFACDF8DB
:100BE00000800223B9F826205A20B9F82410521F99
:100BF00005F07AF9B9F826106423B9F824002DA27B
:100C0000491F05F033FACDF800800223B9F82620F9
:100C10005920B9F82410521F05F066F9CDF800806C
:100C20000223B9F826205A20B9F82410D21D05F065
:100C30005BF9B9F826106423B9F8240021A2C91D74
:100C400005F014FACDF800800223B9F82620B9F88F
:100C5000241001E0FEE3FEE35920D21D6DE0826A1C
:100C6000022A6CD1C278521CD2B2C270022A66D15A
:100C700089F80170022389F80270342289F8037020
:100C80005B204FF00508CDF8008005F02DF9B9F88C
:100C900026106423B9F824000AA2491C05F04EFA74
:100CA000CDF800800223B9F82620B9F824100DE011
:100CB0004000002020454E47200000002042494EC1
:100CC0002000000020484558200000005A20521FF4
:100CD00005F00AF96423AFF21C02B9F82610B9F83E
:100CE0002400491F05F0C2F9CDF800800223B9F8AD
:100CF00026205920B9F82410521F05F0F5F8CDF838
:100D000000800223B9F826205A20B9F824100B3AA3
:100D100005F0EAF86423AFF26402B9F82610B9F8D6
:100D200024000B3905F0A2F9CDF800800223B9F8B0
:100D300026205920B9F824100B3A05F0D5F8B9F857
:100D40002010701842781B2A1FD182785B2A1CD190
:100D5000C278372A19D102796D2A16D142790B2A25
:100D600013D08079082810D0091D88B2A9F8220074
:100D700099F81C103218521C081AB9F82610401E97
:100D8000C3B2B9F8240005F071F9A08A315C3329A7
:100D900002D0352934D069E0304441783B297DD1F7
:100DA000817835296DD1C178482978D101791B29FD
:100DB000F5D141795B29F2D181794B29EFD1C17904
:100DC0001B29ECD1017A5B29E9D1417A3129E6D19D
:100DD000817A3629E3D1C17A3B29E0D1017B3029E0
:100DE000DDD1417B4829DAD1807B0028D7D1A06AA8
:100DF0000328D4D14B20009001230522032132E0A7
:100E0000304441783B297DD18178352960D1C17842
:100E1000482978D101791B29C1D141795B29BED1FB
:100E200081794B29BBD1C1791B29B8D1017A5B29C2
:100E3000B5D1417A3129B2D1817A3629AFD1C17A7F
:100E40003B29ACD1017B3029A9D1417B4829A6D1CE
:100E5000807B0028A3D1A06A0328A0D14B2000905A
:100E60000123052211465A2005F03EF8A08A315C84
:100E7000332902D0352927D04FE0304440783B2831
:100E80008DD1A08A30448178362951D1C178352955
:100E900085D1017948298BD1417901E074E19DE048
:100EA0001B2985D181795B2985D1C179372985D1E4
:100EB000007A6D2885D1A06A032885D10F20009083
:100EC00001234122032125E0304440783B289AD178
:100ED000A08A3044817836294ED1C178352985D110
:100EE0000179482985D141791B2995D181795B29DF
:100EF00092D1C17937298FD1007A6D288CD1A06A1F
:100F0000032801E0A3E18FE086D10F2000900123A8
:100F1000412205215A2004F0E7FFA18A705C3328A2
:100F200002D0352824D049E0701840783B2885D17C
:100F3000A08A3044817833294BD1C178362986D1B3
:100F40000179482986D141791B2986D181795B298C
:100F500096D1C179372993D1007A6D2890D1A06AB2
:100F600003288DD10520009001232422032122E0B3
:100F7000701840783B28AAD1A08A30448178332960
:100F80004DD1C178362986D10179482989D1417955
:100F90001B2986D181795B2986D1C179372986D1F0
:100FA000007A6D2886D1A06A032886D1052000909A
:100FB0000123014624225A2004F096FFA08A315CC6
:100FC000332902D0352926D04DE0304440783B28E3
:100FD00085D1A08A3044807835284FD1A08A30440A
:100FE000C178342984D10179482984D141791B29D8
:100FF00084D181795B2987D1C179372984D1007A5D
:101000006D2894D1A06A032891D105200090012376
:101010003622032124E0304440783B28ABD1A08A1B
:101020003044807835284DD1A08A3044C1783429A5
:1010300085D10179482985D141791B2985D18179CB
:101040005B2985D1C179372985D1007A6D2885D171
:10105000A06A032885D1052000900123014636228D
:101060005A2004F041FFA08A315C332902D035298F
:1010700024D049E0304440783B2884D1A08A3044D1
:10108000817834294BD1C17831297DD30179482920
:1010900085D141791B2985D181795B2985D1C17998
:1010A000372995D1007A6D2892D1A06A03288FD173
:1010B0000A20009001232A22032122E030444078B4
:1010C0003B28ABD1A08A3044817834294ED1C178F5
:1010D0003129DAD30179482984D141791B2984D176
:1010E00081795B2984D1C179372984D1007A6D282F
:1010F00084D1A06A032884D10A20009001232A22E7
:1011000005215A2004F0F0FEA08A315C332902D078
:10111000352927D051E0304440783B2888D1A08A37
:1011200030448178322986D1C1783129ADD33A292A
:101130002AD20179482984D141791B2984D1817926
:101140005B2984D1C179372984D1007A6D2894D163
:10115000A06A032891D1A08B01231622C01E009003
:10116000032127E0304440783B2870D1A08A3044E6
:10117000817832298CD1C178312986D33A29D7D2C6
:101180000179482984D100E0D5E041791B2985D136
:1011900081795B2985D1C179372985D1007A6D287C
:1011A00085D1A06A032897D1A08B01231622C01EE7
:1011B000009005215A2004F097FEA08A315C342962
:1011C0007ED1304441786D297BD181780B2986D13D
:1011D000C178082986D101791B2986D141795B29FB
:1011E00086D18179372986D1C1793B2996D1017A77
:1011F000342993D1407A3B2890D1A06A022803D0A9
:10120000A18C0D291DD071E205270097E28C0123E6
:10121000A18C5B20521C491C04F066FEE18C642307
:10122000A08CFDA2491C401C04F088FF00970123FC
:10123000E28C5A20A18C521C04F056FE6423F8A2C2
:1012400045E0E18C312903D01F2920D04EE28CE10A
:10125000032870D106270097012332220E215B203C
:1012600004F042FEE18C6423A08CEFA2491C401CD8
:1012700004F064FF00970123E28C5A20A18C521CD9
:1012800004F032FE6423EAA221E0B4E107E203287D
:1012900051D106270097012320220E215B2004F064
:1012A00023FEE18C6423A08CE3A2491C401C04F0C3
:1012B00045FF00970123E28C5A20A18C521C02E0CA
:1012C00094E015E0A6E004F00FFE6423DCA2E18CBC
:1012D000A08C491C04F0CAFE00970123E28C59201F
:1012E000A18C521C04F000FEA08A305C34287DD111
:1012F000A08A304441783B291DD1817831291AD107
:10130000C1786D2917D101790B2914D141790829A8
:1013100011D181791B290ED1C1795B290BD1017AB9
:10132000372908D1407A3B2805D1A06A022803D08A
:10133000A18C0D291CD0D9E105270097E28C01234F
:10134000A18C5B20521C04F0CFFDE18C6423A08CA7
:10135000B3A2491C04F0F2FE00970123E28C5A204C
:10136000A18C521C491C04F0BFFD6423AAA23CE0DE
:10137000E28C312A02D01F2A1CD0B7E103286BD19E
:1013800006270097012332225B2004F0ADFDE18C9B
:101390006423A08CA6A2491C04F0D0FE0097012370
:1013A000E28C5A20A18C521C491C04F09DFD642340
:1013B0009DA21AE003284FD106270097012320227F
:1013C0005B2004F091FDE18C6423A08C9CA2491C5D
:1013D00004F0B4FE00970123E28C5A20A18C521C29
:1013E000491C04F081FD642393A200E00EE0E18C2F
:1013F000A08C491C401C04F039FE00970123E28CAC
:101400005920A18C521C491C04F06EFDA08A305C4E
:101410003B2876D1B4F814C006EB0C02D1784829E9
:1014200008D110791B2805D150795B2802D1907919
:101430006D280AD0907848280ED11B290CD110793C
:101440005B2809D150796D2806D1A4F816C0B4F8EC
:101450001C8002E055E14CE1D2E0414608E0335CFB
:101460003B2B02D0482B17D000E0E083401CE082E9
:10147000E08A8842F3D3E08B311811F8010C303840
:101480000A2817D211F8023CA3F12F010C2905D329
:101490006D494880A0840DE02084ECE7A3F1300181
:1014A0000A2907D2684B01EB810700EB4707198037
:1014B0005880A784A146208C311811F8010C3038CF
:1014C0000A2818D211F8023CA3F12F010C2903D3EA
:1014D0005D49091D48800CE0A3F12A0110290AD2B8
:1014E000594B891F1B1D01EB81071980588000EBA8
:1014F0004700A9F8260090796D2803D051796D290D
:101500000DD02EE0D0790B2817D0A8EB0C00B9F83D
:101510002610C01FD21DC3B2B9F824000AE00B2860
:101520000BD0A8EB0C00B9F82610801F921DC3B297
:10153000B9F8240004F09AFD13E005270097B9F8E4
:1015400026200123B9F824105A2004F0CDFC00977E
:101550000123B9F824105A20B9F82620491C04F0B8
:10156000C3FCA08A305C35283AD1A18A7218507821
:10157000442845D190781B2842D1D0784D283FD1BE
:101580001079E8BB50790B280CD0082838D0207F80
:10159000521D401AE18C401F491CC3B2A08C04F0BC
:1015A00065FD1DE006270097E28C0123A18C5A20DF
:1015B000521C04F099FCA18A207F7218401AE18C19
:1015C000801F491C921DC3B2A08C04F04FFD0097F0
:1015D0000123E28C5A20A18C521C491C04F084FC8B
:1015E000A08A315C312937D1304441786D297DD1D1
:1015F00080781B2853D1A08A3218D1784D2900E079
:101600003FE073D11179E1BBA16A03296ED1217F3B
:10161000081A401FC3B219E0204F464620000000C0
:10162000204F4E20000000002020525820000000D3
:101630002020545820000000204445435220000040
:1016400020494E432E20000040000020E18C521D16
:10165000A08C491C04F00AFDA08A315C6D2913D1CD
:1016600030444178312941D1807830283ED1A06A78
:1016700004283BD14B2000900123052203215A204E
:1016800000E033E004F030FCA08A315C312902D064
:10169000322914D02AE0304440786D2826D1A08A1F
:1016A0003044807810BBA06A04281FD14B200090E2
:1016B0000123052203215A2004F016FC16E03044D1
:1016C00040784A2812D104F0C7FB50200090102324
:1016D000002201215A2004F007FC152004F0C4FD6B
:1016E00084F807B084F805B084F806B0A08A401CDE
:1016F000A082A08AA28B9042FEF4BAAE608A401CFF
:101700006082618AA0898142FEF4A6AEBDE8F88FAE
:1017100070470000F8B504F0C9FDFE4D0024A86A2A
:1017200038B301287FD002287AD0032879D0042842
:1017300078D1A86B0128FBD1E889C01F03280AD201
:10174000288A3C380E2806D29D20AC6302F014FF94
:10175000A86B0128ECD1E8890B38032862D2288ACB
:101760003D380C28FAD2BB20AC63BDE8F84002F04B
:1017700003BFA86B0128DBD1E8890B380428EDD220
:10178000288A1021A0F10D02112A15D204230091FC
:101790000E220B215B2004F0A7FB64230E210C20FA
:1017A000DDA204F0CBFC64230E210D20DEA204F0A8
:1017B000C5FCA920AC63D8E7A0F123020F2A15D2FB
:1017C0000423009122220B215B2004F08DFB642373
:1017D00022210C20D8A204F0B1FC642322210D2088
:1017E000D1A204F0ABFCAC20AC63BEE737380F28C5
:1017F000B4D20423009136220B215B2004F074FB49
:10180000642336210C20D0A204F098FC64233621F6
:101810000D20C5A204F092FCAE20AC63A5E702E067
:1018200051E06DE2EEE1A86B012884D1E889801FC8
:10183000062893D2288A12261338112823D205238A
:101840000096122206215B2004F04EFB6423122135
:101850000720C0A204F072FC642312210820C1A258
:1018600004F06CFC642312210920C2A204F066FC7F
:101870009620AC6302F080FEA86B0128D5D1E889E0
:10188000801F0628B4D2288A2F381328B0D2052307
:101890000096302206215B2004F026FB64233021D1
:1018A0000720B8A204F04AFC642330210820B9A222
:1018B00004F044FC642330210920AEA204F03EFC75
:1018C0009B20AC6351E7A86B0128AED1E889C01E0C
:1018D000032837D2288A09380D280AD28120AC6320
:1018E00002F04AFEA86B01289FD1E889C01E032898
:1018F00028D2288A18380D280AD28320AC6302F037
:101900003BFEA86B012890D1E889C01E032819D29C
:10191000288A27380D280AD28520AC6302F02CFED5
:10192000A86B0128AAD1E889C01E03280AD2288AF8
:1019300036380D2806D28820AC6302F01DFEA86B55
:1019400001289BD1E8890C260A3803286BD2288A03
:1019500009380D2817D2022300960A2209215B209C
:1019600004F0C2FA64230A2109208EA204F0E6FBE7
:101970009E20AC6302F000FEA86B0128A5D1E88987
:101980000A3803284FD2288A19380D2817D2022383
:1019900000961A2209215B2004F0A6FA64231A217A
:1019A000092083A204F0CAFBA120AC6302F0E4FD8D
:1019B000A86B012889D1E8890A38032833D2288AFC
:1019C00029380D2817D2022300962A2209215B20EC
:1019D00004F08AFA64232A21092078A204F0AEFBDD
:1019E000A420AC6302F0C8FDA86B01288BD1E88964
:1019F0000A38032817D2288A39380D2813D202232F
:101A000000963A2209215B2004F06EFA64233A2101
:101A100009206DA204F092FBA620AC6302F0ACFD9D
:101A2000A86B01288DD1E889C01F03286BD2288AB2
:101A300009380D2817D2022300960A2206215B20BE
:101A400004F052FA64230A21062062A204F076FB15
:101A50008B20AC6302F090FDA86B01288ED1E88941
:101A6000C01F03284FD2288A19380D2817D2022305
:101A700000961A2206215B2004F036FA64231A210C
:101A8000062057A204F05AFB8D20AC6302F074FDCF
:101A9000A86B01288ED1E889C01F032833D2288A79
:101AA00029380D2817D2022300962A2206215B200E
:101AB00004F01AFA64232A2106204CA204F03EFB0B
:101AC0008F20AC6302F058FDA86B01288ED1E88905
:101AD000C01F032817D2288A39380D2813D20223B1
:101AE00000963A2206215B2004F0FEF964233A2195
:101AF000062041A204F022FB9220AC6302F03CFDE0
:101B0000A86B01288ED1E8890D3802287AD2288A5C
:101B10000A3878E000000020202020205354414E55
:101B200044415244202000002020202020204D4FFE
:101B30004445202000000000202020202020434693
:101B40004453202000000000202020202020434D6E
:101B500043202000202020202020205553455220C3
:101B60002000000020202020434F4E464947555278
:101B700045202000202020202020204D454E5520AB
:101B80002000000020202020204156494F4E49438C
:101B900053202000202020202020204C525520209F
:101BA000000000002020202052582D41202000005D
:101BB0002020202052582D422020000020202020CC
:101BC00052582D43202000002020202052582D4420
:101BD000202000002020202054582D4120200000EB
:101BE0002020202054582D4220200000202020209A
:101BF00054582D43202000002020202054582D44EC
:101C0000202000007BE005280AD2B220AC6302F05D
:101C1000B3FCA86B012872D1E8890D3802286ED276
:101C2000288A103805280AD2B320AC6302F0A4FC3D
:101C3000A86B0128EFD1E8890D380228EFD2288A55
:101C4000163805280AD2B420AC6302F095FCA86BC4
:101C50000128E0D1E8890D380228E0D2288A1C3812
:101C600005280AD2B520AC6302F086FCA86B0128D7
:101C7000D1D1E8890D380228D1D2288A2838052800
:101C80000AD2B720AC6302F077FCA86B0128C2D15E
:101C9000E8890D380228C2D2288A2E3805280AD2AF
:101CA000B820AC6302F068FCA86B0128B3D1E889C6
:101CB0000D380228B3D2288A343805280AD2B92030
:101CC000AC6302F059FCA86B0128A4D1E8890D3857
:101CD0000228A4D2288A3A380B28A0D20B20AC6361
:101CE000022300903B220D215B2004F0FDF86423C9
:101CF0003B210D20FDA204F021FABA2035E53CE29B
:101D0000A86B012887D1E889C01F02287ED2288AC3
:101D10000B3805280AD29420AC6302F02DFCA86B86
:101D2000012887D1E889C01F02286FD2288A11387C
:101D300005280AD29520AC6302F01EFCA86B01288E
:101D400087D1E889C01F022875D2288A173805284C
:101D50000AD29620AC6302F00FFCA86B012887D151
:101D6000E889C01F022866D2288A1D3805280AD2B1
:101D70009720AC6302F000FCA86B012887D1E889AA
:101D8000C01F022857D2288A233805280AD2982053
:101D9000AC6302F0F1FBA86B012887D1E889C01F72
:101DA000022848D2288A293805280AD29920AC630B
:101DB00002F0E2FBA86B012887D1E889C01F022846
:101DC00039D2288A2F3805280AD29A20AC6302F02B
:101DD000D3FBA86B012895D1E889C01F02282AD21D
:101DE000288A353805280AD29B20AC6302F0C4FB50
:101DF000A86B012886D1E889C01F02281BD2288A37
:101E00003B3805280CD29C20AC6300E013E002F0C4
:101E1000B3FBA86B012884D1E889C01F02280AD22D
:101E2000288A4138052806D29D20AC6302F0A4FB25
:101E3000A86B012884D1E8890A3802287ED2288A32
:101E40000B3805280AD29E20AC6302F095FBA86BE4
:101E5000012884D1E8890A3802286FD2288A1138EB
:101E600005280AD29F20AC6302F086FBA86B0128EC
:101E700084D1E8890A38022875D2288A17380528BB
:101E80000AD2A020AC6302F077FBA86B012884D1B2
:101E9000E8890A38022866D2288A1D3805280AD21D
:101EA000A120AC6302F068FBA86B012884D1E8890B
:101EB0000A38022857D2288A233805280AD2A220B5
:101EC000AC6302F059FBA86B012884D1E8890A3879
:101ED000022848D2288A293805280AD2A320AC63D0
:101EE00002F04AFBA86B012884D1E8890A3802284D
:101EF00039D2288A2F3805280AD2A420AC6302F0F0
:101F00003BFBA86B012886D1E8890A3802282AD22F
:101F1000288A353805280AD2A520AC6302F02CFBAC
:101F2000A86B012886D1E8890A3802281BD2288AA2
:101F30003B3805280CD2A620AC6300E013E002F089
:101F40001BFBA86B012884D1E8890A3802280AD231
:101F5000288A4138052806D2A720AC6302F00CFB82
:101F6000A86B012884D1E889801E02280AD2288A19
:101F70001238032806D28020AC6302F0FDFAA86B69
:101F8000012884D1E88905280AD1288A1238032833
:101F900006D28A20AC6302F0EFFAA86B012885D143
:101FA000E889801E02280AD2288A4238052806D2EB
:101FB0008920AC6302F0E0FAA86B012885D1E8899A
:101FC00005280AD1288A4238052806D29320AC6316
:101FD00002F0D2FAA86B012886D1E889801E022877
:101FE0000AD2288A3D38042806D28820AC6302F041
:101FF000C3FAA86B012886D1E88905280AD1288A66
:102000003D38042806D29220AC6302F0B5FAA86BE2
:10201000012887D1E889801E02280AD2288A2A3816
:102020000A2806D28520AC6302F0A6FAA86B012824
:1020300089D1E88905280AD1288A2A380A2806D2AF
:102040008F20AC6302F098FAA86B01288AD1E88946
:10205000801E02280AD2288A3738052806D287200F
:10206000AC6302F089FAA86B01288AD1E8890528B7
:102070000AD1288A3738052806D29120AC6302F0AD
:102080007BFAA86B012878D1E889801E02280AD241
:10209000288A2438052806D28420AC6302F06CFA22
:1020A000A86B012869D1E88905280AD1288A243833
:1020B000052806D28E20AC6302F05EFAA86B0128D8
:1020C0005BD1E889801E02280AD2288A17380528A1
:1020D00006D28320AC6302F04FFAA86B01284CD1E2
:1020E000E889052811D1288A173805E020204449BD
:1020F00053504C4159202000052806D28C20AC6357
:1021000002F03AFAA86B012837D1E8890D38022885
:1021100033D2288A323805280AD2B920AC6302F0BB
:102120002BFAA86B012828D1E8890D38022824D27F
:10213000288A383808280AD2BA20AC6302F01CFA80
:10214000A86B012819D1E8890D38022815D2288AF0
:10215000413805280AD2BB20AC6302F00DFAA86B07
:1021600001280AD1E8890D38022806D2288A2038A9
:10217000052802D2B620AC63C0E5F8BD7047000068
:102180002DE9F05F28B190F83510022904D08021A4
:1021900041650120BDE8F09F634A634B624F1832EE
:1021A00001683033614C624DB942DFF888A1DFF835
:1021B0008891DFF888B1DFF88881DFF888E1624E26
:1021C00032D0914230D099422ED0A1422CD0A94297
:1021D0002AD0514528D0494526D0594524D0C44657
:1021E000614521D0DFF858C10CF1180C61451BD0B6
:1021F000DFF84CC10CF1300C614515D0DFF844C15B
:10220000ACF1300C61450FD0DFF838C1ACF1180CDF
:10221000614509D0714507D0DFF828C10CF1180CD1
:10222000614501D0B1422ED14FF0040C80F835C089
:10223000B94223D0914221D099421FD0A1421DD052
:10224000A9421BD0514519D0494517D0594515D041
:10225000414513D03A48183081420FD038483030C9
:1022600081420BD037483038814207D03548183882
:10227000814203D0714501D032481830086820F0FF
:10228000010008604DE0D1F8008028F00E08C1F888
:1022900000800168B9421ED091421CD099421AD0E8
:1022A000A14218D0A94216D0514514D0494512D0A8
:1022B000594510D0224A91420DD0214A18329142FC
:1022C00009D01F4A3032914205D01E4A303A91421D
:1022D00001D01C4A183A0A6822F001020A60026E14
:1022E0000121136823F48073136090F85C30826DD1
:1022F00003F01F0301FA03F35360D0E9192353607D
:10230000C26E32B1136823F480731360D0E91C23CA
:1023100053600023026D80F8343080F8351002B12C
:102320009047002036E700001000024058000240AD
:102330007000024088000240A0000240B800024045
:102340001004024088040240B80402402DE9F84F0E
:10235000714C00234FF0B04E4FF001094FF0030BCA
:102360004FF00F0AD0E000BF09FA03F812EA0802A2
:1023700074D04D68022D01D0122D0FD1DD085F07FA
:1023800000EB850500950E692D6AFF0E0AFA07FC21
:10239000BE4025EA0C052E43009D2E625D000F799C
:1023A00006680BFA05FC07F0030726EA0C06AF40A7
:1023B000374307604E68012E05D0022E03D0112E40
:1023C00001D0122E0FD18668CF6826EA0C06AF40E6
:1023D0003743876046680F7926EA0806C7F3001777
:1023E0009F4037434760C6688F6826EA0C06AF40B7
:1023F0003743C7604D68ED0030D5484D2E6846F034
:1024000002062E602D6823F0030606F1B04605F0A3
:10241000020500959D072F0FD6F80854DFF80081BC
:102420000AFA07FC404525EA0C0502D14FF0000CE2
:1024300041E0DFF8F0C0604502D14FF0010C3AE016
:10244000DFF8E4C0604502D14FF0020C33E0DFF862
:10245000DCC0604503D14FF0030C2CE053E0DFF803
:10246000D0C0604502D14FF0040C24E0DFF8C4C0B6
:10247000604502D14FF0050C1DE0DFF8BCC060459F
:1024800002D14FF0060C16E0DFF8B0C0604502D173
:102490004FF0070C0FE0DFF8A8C0604502D14FF005
:1024A000080C08E0DFF89CC0604502D14FF0090C31
:1024B00001E04FF00A0C0CFA07FC4CEA050CC6F8D8
:1024C00008C425684E6825EA0205F60300D51543C1
:1024D000256065684E6825EA0205B60300D51543F8
:1024E00065604F687546DEF80060FF0226EA020666
:1024F00000D516432E604F686E68BF0226EA0206BA
:1025000000D516436E605B1C0A6832FA03F57FF44F
:102510002BAFBDE8F88F000080000058F44402584B
:10252000000002580004025800080258000C02582B
:10253000001002580014025800180258001C0258DB
:10254000002002580024025801480068000C70471F
:102550000010005C014880687047000058000020AF
:102560000248816802781144816070475800002059
:10257000032010B500F084F800F0DEFF0E490F4A8A
:102580000F4B0C68C4F30324145D04F01F04E040F7
:102590001860096801F00F01515C01F01F01C8408B
:1025A00008490860002000F00FF808B1012010BDB4
:1025B00000F02AF8002010BD184402589863000863
:1025C000640000206800002070B50D4D0446287896
:1025D000A0B14FF47A71B1FBF0F00A490968B1FB80
:1025E000F0F001F0A0FA48B9102C07D200222146E1
:1025F000501E00F025F800206C6070BD012070BDF9
:102600005800002064000020054808B5016841F02A
:1026100002010160006800F00200009008BD0000A7
:10262000F4440258002809DB410900F01F02890028
:10263000012001F1E0219040C1F800017047000045
:102640000E4BF0B41B680D46C3F30223C3F107061B
:10265000042E00D90426191D072901D2002300E009
:10266000DB1E012404FA06F19C40491E2940641E29
:10267000994014402143F0BC03F0CDBB0CED00E0C9
:10268000064900F0070210B54FF6FF040868044B36
:10269000204040EA02201843086010BD0CED00E025
:1026A0000000FA05124970B50A68520706D40A6894
:1026B00002F00702824201D0012070BD0A6822F0B8
:1026C000070202430A60FFF745FF094D4FF47A768F
:1026D0000446083D07E000BFFFF73CFF001BB04287
:1026E00001D9032070BD28688004F5D5002070BD95
:1026F0000C48025810B500F01FFF064A0649126840
:10270000064BC2F303229A5C02F01F02D04008601D
:1027100010BD0000184402586400002098630008AF
:1027200010B500F0CFFE05490968054AC1F3021152
:10273000515C01F01F01C84010BD00002044025848
:1027400098630008494930B5484C0B1D0A68143499
:1027500009681D68246802F0030305F01002C1F344
:102760000531C4F3CC04002914FB02F200EE102A58
:10277000F8EE400A75D03F4A9FED3D1AB7EE000AC9
:102780006BB1DFED3D1A012B01D0022B64D002EEBC
:10279000101A1168F8EE422A81EEA22A21E0334C89
:1027A000283C23689B0612D5344B246801EE901A0E
:1027B0001168C4F3C104F8EE612AE34001EE903AD7
:1027C000C1F30801F8EE611A81EEA22A0BE001EED6
:1027D000901ADFED2B2A00BFF8EE611A116882EE25
:1027E000A12AC1F3080101EE901A1168F8EE611AEE
:1027F00040EE811A71EE800A62EE200AC1F3462192
:1028000001EE101AB8EE411A31EE001AC0EE811A2C
:10281000BCEEE11A80ED001A1168C1F3064101EE29
:10282000101AB8EE411A31EE001AC0EE811ABCEE51
:10283000E11A80ED011A1168C1F3066101EE101A68
:10284000B8EE411A31EE000A80EE801ABCEEC10AE1
:1028500080ED020A30BD04E001EE901ADFED092A96
:10286000BAE70021016041608160F3E72844025823
:1028700000000039384402580024744A0090D00304
:102880000024744C0024F44A494930B5484C0B1DCF
:102890000A681C3409681D68246802F0030305F403
:1028A0008072C1F30551C4F3CC04002914FB02F279
:1028B00000EE102AF8EE400A75D03F4A9FED3D1A0F
:1028C000B7EE000A6BB1DFED3D1A012B01D0022BF0
:1028D00064D002EE101A1168F8EE422A81EEA22AA4
:1028E00021E0334C283C23689B0612D5344B2468E6
:1028F00001EE901A1168C4F3C104F8EE612AE340B6
:1029000001EE903AC1F30801F8EE611A81EEA22AB5
:102910000BE001EE901ADFED2B2A00BFF8EE611AF2
:10292000116882EEA12AC1F3080101EE901A116824
:10293000F8EE611A40EE811A71EE800A62EE200A0A
:10294000C1F3462101EE101AB8EE411A31EE001A19
:10295000C0EE811ABCEEE11A80ED001A1168C1F3D5
:10296000064101EE101AB8EE411A31EE001AC0EE1F
:10297000811ABCEEE11A80ED011A1168C1F30661FB
:1029800001EE101AB8EE411A31EE000A80EE801AFC
:10299000BCEEC10A80ED020A30BD04E001EE901ADF
:1029A000DFED092ABAE70021016041608160F3E7A9
:1029B0002844025800000039404402580024744A58
:1029C0000090D0030024744C0024F44A2DE9FC5FED
:1029D000044650F8241B002500902E460801FE4FA7
:1029E000DFF8F8931DD5606E50B1B0F5801F0CD0A4
:1029F000B0F5001F0ED0B0F5401F1DD001250FE02F
:102A0000386840F40030386016E00221201D01F0E3
:102A100093FE03E00098022101F01EFF05000BD099
:102A20002E462088C00523D5606D05281ED2DFE81C
:102A300000F00C11161B1B00626ED9F8001021F477
:102A400040111143C9F80010EBE7386840F400303A
:102A5000386009E00021201D01F06EFE03E00098BF
:102A6000002101F0F9FE05466DB100E001252E467A
:102A70002088800528D5A06D80281ED00CDC90B160
:102A800040280ED114E0626DD9F8001021F0070142
:102A90001143C9F80010EBE7C02813D0B0F5807FD0
:102AA00010D001250FE0386840F40030386009E0AC
:102AB0000021201D01F040FE03E00098002101F0FC
:102AC000CBFE054695B12E462088DFF810834005E1
:102AD00008F108082CD5D4F8A400B0F5800F20D058
:102AE0000DDCA0B1B0F5001F0FD115E0A26DD9F833
:102AF000001021F4E0711143C9F80010E4E7B0F5CB
:102B0000C00F13D0B0F5000F10D001250FE03868CA
:102B100040F40030386009E00021201D01F00CFE77
:102B200003E00098002101F097FE054675B12E469E
:102B3000208800052DD5D4F8A800B0F1007F21D061
:102B40000EDCA8B1B0F1807F10D116E0D4F8A4203B
:102B5000D8F8001021F460011143C8F80010E7E72D
:102B6000B0F1407F13D0B0F1806F10D001250FE09D
:102B7000386840F40030386009E00021201D01F081
:102B8000DBFD03E00098002101F066FE05466DB113
:102B90002E46206880011FD5A06CD8B110280FD018
:102BA000202812D0302815D0012514E0D4F8A82010
:102BB000D8F8001021F0E0611143C8F80010E8E7F0
:102BC000386840F40030386004E00221201D01F034
:102BD000B3FD05466DB12E462088C0042BD5E06DAF
:102BE000B0F5005F20D00DDCA0B1B0F5805F0FD153
:102BF00015E07A48A26C001F016821F030011143F2
:102C00000160E9E7B0F5405F13D0B0F5804F10D018
:102C100001250FE0386840F40030386009E00021F9
:102C2000201D01F089FD03E00098002101F014FE51
:102C3000054685B12E462088800429D5206EB0F542
:102C4000403F23D010DC08B3B0F5803F14D0B0F57E
:102C5000003F0FD115E0E26DD9F8001021F4E041FA
:102C60001143C9F80010E6E7B0F5802F0ED0B0F59B
:102C7000A02F0BD001250AE00121201D01F05CFDF1
:102C800003E00098012101F0E7FD05468DB12E46D5
:102C9000208840042AD5D4F8AC00B0F1405F23D09E
:102CA00010DC08B3B0F1805F14D0B0F1005F0FD139
:102CB00015E0226ED9F8001021F4E0211143C9F883
:102CC0000010E5E7B0F1804F0ED0B0F1A04F0BD06F
:102CD00001250AE00121201D01F02EFD03E00098EE
:102CE000012101F0B9FD05466DB12E462088000492
:102CF0001FD5E06ED8B1B0F1805F0ED0B0F1005FAB
:102D000010D0012514E0D4F8AC20D8F8001021F040
:102D1000E0411143C8F80010E8E7386840F400309B
:102D2000386004E00121201D01F006FD05466DB16B
:102D30002E462068C0011ED5606CD0B101280ED08F
:102D4000022811D0032814D0012513E0E26ED9F82F
:102D5000001021F040511143C9F80010E9E738682C
:102D600040F40030386004E00221201D01F0E4FC52
:102D7000054685B12E462068DFF85CB04002ABF115
:102D80001C0B57D51648016841F480710160FFF7AC
:102D9000E1FB82460EE01148626C001F016821F0E1
:102DA000030111430160E6E7FFF7D4FBA0EB0A0043
:102DB00064283DD80A480068C005F5D57DBBDFF81A
:102DC0001CA0B4F8B0100AF1200ADAF8000001F4EF
:102DD000407100F4407005E02C4402585044025801
:102DE00000480258884211D0DAF80010DAF80020C2
:102DF00021F4407142F48032CAF80020DAF8002051
:102E000022F48032CAF80020CAF80010D4F8B000CA
:102E1000B0F5807F21D1FFF79DFB019019E008E01C
:102E2000FFF798FB0199411A41F28830814210D98D
:102E300003252E462078DFF82CA4C0073DD0A06FD4
:102E4000182838D026DC80B3082829D0102825D1AE
:102E50002CE0DAF800008007E2D5D4F8B010C1F316
:102E60000120032858460DD0016821F47C510160EF
:102E7000B4F8B020DAF80010C2F30B021143CAF81C
:102E80000010D7E7F84A036802EA111223F47C51D4
:102E90001143ECE720280ED028280CD001250BE0A8
:102EA0000121201D01F048FC04E004E0009801210C
:102EB00001F0D2FC05465DB12E46207880071ED574
:102EC000606F062819D2DFE800F0160C11161616EE
:102ED000A26FDAF8001021F038011143CAF800108F
:102EE000EBE70121201D01F027FC03E00098012100
:102EF00001F0B2FC054675B100E001252E462078B0
:102F000040071FD5D4F89000062819D2DFE800F05A
:102F1000160C11161616626FDAF8001021F0070170
:102F20001143CAF80010EAE70121201D01F004FC5A
:102F300003E00098012101F08FFC05469DB100E0FF
:102F400001252E46207880062BD5D4F88C00B0F1D0
:102F5000405F24D011DC10B3B0F1805F15D0B0F128
:102F6000005F10D116E0D4F89020D8F8001021F0BE
:102F700007011143C8F80010E4E7B0F1804F0ED00C
:102F8000B0F1A04F0BD001250AE00021201D01F077
:102F9000D3FB03E00098022101F05EFC05468DB1F1
:102FA0002E46207840062BD5D4F89800B0F5406F17
:102FB00024D011DC10B3B0F5806F15D0B0F5006FE0
:102FC00010D116E0D4F88C20DAF8001021F0E0419E
:102FD0001143CAF80010E4E7B0F5805F0ED0B0F5F9
:102FE000A05F0BD001250AE00021201D01F0A4FB09
:102FF00003E00098022101F02FFC05468DB12E461A
:10300000207800062BD5D4F89C00B0F5C04F24D012
:1030100011DC10B3B0F5005F15D0B0F5804F10D1C2
:1030200016E0D4F89820D8F8001021F4E0511143AC
:10303000C8F80010E4E7B0F5004F0ED0B0F5204F0F
:103040000BD001250AE00021201D01F075FB03E0F3
:103050000098022101F000FC054665B32E46207859
:1030600000070BD5D4F88010B1F5805F2DD0DAF8C9
:10307000002022F440520A43CAF800202078C006FB
:103080000BD5D4F89410B1F5807F26D0D8F8002065
:1030900022F440720A43C8F800202068000330D5AB
:1030A000D4F8A00008B3B0F5803F23D0B0F5003FBE
:1030B00025D0012524E0D4F89C20D8F8001021F474
:1030C00060411143C8F80010C9E70098022101F0DF
:1030D000C3FB0028D2D00126D0E70098022101F0DE
:1030E000BBFB0028D9D00126D7E70021201D01F025
:1030F00023FB03E00098022101F0AEFB054685B1F9
:103100002E462068400322D5D4F88400B0F5801FF5
:1031100011D0B0F5001F13D0B0F5401F15D0012518
:1031200014E0D4F8A020D8F8001021F44031114365
:10313000C8F80010E5E7386840F40030386004E073
:103140000098012101F088FB054655B12E46206804
:10315000C0031CD5E06C70B1B0F5803F10D00125E4
:1031600014E0D4F88420DAF8001021F4401111435F
:10317000CAF80010EBE7386840F40030386004E02B
:103180000221201D01F0D8FA0546CDB12E46206857
:10319000800005D50098022101F05EFB00B10126F8
:1031A000206880031BD5E06FB8B1B0F5807F10D0E8
:1031B000B0F5007F11D0B0F5407F0ED001250DE0B5
:1031C0002848E26C0838016821F48031114301601D
:1031D000DDE7386840F400303860EDB32E462068F3
:1031E000C00207D5226FD9F8001021F00041114329
:1031F000C9F800102068C00008D5D4F8B420DBF866
:10320000001021F480411143CBF8001020688002A7
:1032100007D5A26ED9F8001021F080711143C9F8CA
:103220000010206840000CD5DBF8001021F40041AC
:10323000CBF80010DBF80010D4F8B8201143CBF81D
:1032400000102068002809DA0648226D0838016855
:1032500021F04051114300E008E001607EB10120FF
:10326000BDE8FC9F54440258CFFFFF00E26FDAF83C
:10327000001021F440711143CAF80010AFE700209C
:10328000EEE700002DE9F05F04000F467ED0DFF886
:103290002482D8F8000000F00F00B8420CD2D8F811
:1032A000001021F00F013943C8F80010D8F80000D1
:1032B00000F00F00B84269D120787F4D40070AD551
:1032C0002069296801F07001884204D9296821F039
:1032D0007001014329602078774E361D00070AD51A
:1032E0006069316801F07001884204D9316821F0C9
:1032F0007001014331602078C0060AD5A0693168A9
:1033000001F4E061884204D9316821F4E0610143AD
:1033100031602078DFF8A0B180060BF1080B0CD5E6
:10332000E1695846DBF8002002F07002914204D9AE
:10333000026822F070020A430260207880070AD5F2
:10334000E068296801F00F01884204D9296821F05A
:103350000F01014329602078C0073ED05649A2687A
:103360002868183920F470601043286060680228CB
:1033700018D0032819D00968012819D04907002955
:103380004ADADFF834A1AAF1080A00E044E0DAF8EA
:10339000002022F007020243CAF80020FFF7DAF803
:1033A000814612E009688903E9E709688901E6E7CF
:1033B000C905E4E7FFF7CEF8A0EB090141F2883038
:1033C000814202D90320BDE8F09F6168DAF800006D
:1033D00000F03800B0EBC10FECD1207880070AD59F
:1033E000E068296801F00F01884204D2296821F0C1
:1033F0000F0101432960D8F80010404601F00F0189
:10340000B9420BD9016821F00F013943016000680E
:1034100000F00F00B84201D00120D4E72078400727
:103420000AD52069296801F07001884204D2296810
:1034300021F0700101432960207800070AD56069F6
:10344000316801F07001884204D2316821F07001C6
:10345000014331602078C0060AD5A069316801F4C3
:10346000E061884204D2316821F4E06101433160B7
:10347000207880060CD5E1695846DBF8002002F080
:103480007002914204D2026822F070020A43026084
:1034900000F052F82968094AC1F30321515C01F098
:1034A0001F01C840064908600020BDE8F05FFFF733
:1034B0008BB800000020005218440258986300089E
:1034C0006400002010B5FFF715F9064A0649126896
:1034D000064B02F00F029A5C02F01F02D040086017
:1034E00010BD0000184402586800002098630008CE
:1034F00010B5FFF7E7FF05490968054AC1F3021156
:10350000515C01F01F01C84010BD00001C4402586E
:103510009863000810B5FFF7D5FF05490968054A0B
:10352000C1F30221515C01F01F01C84010BD000031
:103530001C44025898630008454970B5454809681D
:10354000434B103B11F0380208D00111082A03D078
:10355000102A0BD0182A0BD0084670BD19688906AE
:10356000FBD51968C1F3C101C84070BD3A4870BDB0
:103570003749374D18310C1D24350A68096826680B
:103580002D6802F0030406F00102C1F30511C5F332
:10359000CC0515FB02F200EE102AB8EE400AE9B3A2
:1035A0002F4ADFED2E0AB7EE001A6CB1DFED2D1AAF
:1035B000012C01D0022C43D002EE101A1068F8EE54
:1035C000422A81EEA22A1EE01C68A40611D51B68BF
:1035D00001EE901A1168C3F3C103F8EE612AD840D6
:1035E00001EE900AC1F30800F8EE611A81EEA22AFA
:1035F0000BE001EE901ADFED1C2A00BFF8EE611A15
:10360000106882EEA12AC0F3080001EE900AF8EEDD
:10361000611A40EE201A31EE810A00E015E022EE38
:10362000000A1068C0F34620401C00EE900AF8EE35
:10363000600A80EE201ABCEEC10A10EE100A70BDBE
:1036400001EE901ADFED092AD8E7002070BD0000D6
:10365000104402580090D00300127A000000003994
:10366000304402580024744A0024744C0024F44A64
:103670002DE9F05F04007DD0FF4F2078FE4D183714
:10368000DFF8F493103DC00748D0D9F8000039683E
:1036900000F03800102815D0182803D101F00300DD
:1036A00002280FD06068B0F5803F12D010B1B0F59D
:1036B000A02F18D0286820F480302860286820F4D3
:1036C000802009E02868800328D560680028D2D0CF
:1036D00024E0286840F480302860606888B1FEF7F4
:1036E00039FF064609E0286840F480202860F0E7AA
:1036F000FEF730FF801B64286FD828688003F7D559
:103700000CE0FEF727FF064605E000BFFEF722FFAC
:10371000801B6428F0D828688003F7D4207841F211
:103720000308D54E0C3E800761D5D9F800003968F2
:1037300010F038000ED0182801D188070AD0E068B0
:1037400080B3296821F0190101432960FEF702FFC7
:1037500082462FE02868400702D5E06800288AD01A
:10376000E168286820F0190008432860FEF7F2FE9F
:10377000824607E0D1E000BFFEF7ECFEA0EB0A00B6
:103780000228B9D828684007F6D500BFFEF7DCFE4E
:10379000404513D82069316821F47C3141EA00307A
:1037A000306024E011E000BFFEF7D4FEA0EB0A0079
:1037B0000228A1D828684007F6D5E7E7207C3168C1
:1037C00021F0FE4141EA0060EAE7286820F00100AC
:1037D0002860FEF7BFFE824606E0FFE0FEF7BAFE75
:1037E000A0EB0A00022887D828684007F6D4207882
:1037F000C00657D5D9F80000DFF87CB2396800F070
:103800003800ABF1040B082810D0182803D101F0C0
:10381000030001280AD0E0690028286832D040F06F
:1038200080002860FEF796FE824623E02868C005E7
:1038300023D5E069802870D11FE000BF94F82000F4
:10384000316821F0F84141EA806030602AE000BF31
:1038500094F82010DBF8002022F07C5242EA01614B
:10386000CBF800101EE000BFFEF774FEA0EB0A00CC
:10387000022886D82868C005F6D5FEF765FE4045C3
:10388000E6D8DBE720F080002860FEF763FE0646FE
:1038900005E000BFFEF75EFE801B022889D828687D
:1038A000C005F7D42078000729D5734861696430D2
:1038B00000298046016811D041F001010160FEF746
:1038C00049FE064605E000BFFEF744FE801B0228C5
:1038D00089D8D8F800008007F6D510E021F0010162
:1038E0000160FEF737FE064605E000BFFEF732FE38
:1038F000801B022872D8D8F800008007F6D4207800
:10390000800623D5A0690028286810D040F4805094
:103910002860FEF71FFE064605E0E6E0FEF71AFE09
:10392000801B02285AD828688004F7D50EE020F4BE
:1039300080502860FEF70EFE064604E0FEF70AFE01
:10394000801B02284AD828688004F7D420784007D2
:103950004FD5DFF82881D8F8001041F48071C8F8FD
:103960000010FEF7F7FD064605E000BFFEF7F2FD8A
:10397000801B642832D8D8F80000C005F6D53E4E2A
:10398000A068603601280AD008B1052813D0306835
:1039900020F001003060306820F0040002E0306860
:1039A00040F001003060A06841F2883A90B1FEF723
:1039B000D1FD80460AE0306840F004003060EEE758
:1039C000FEF7C8FDA0EB0801514507D83068800715
:1039D000F6D50EE0FEF7BEFD804607E084E000BFAE
:1039E000FEF7B8FDA0EB080151457DD8306880078F
:1039F000F6D4606AF0B3D9F80010C1F3C20103290C
:103A000073D00228286820F08070286003D0FEF769
:103A1000A1FD044680E0FEF79DFD064605E000BFDF
:103A2000FEF798FD801B022873D828688001F7D420
:103A3000E26A40F2F331386854F8283F884340EA9C
:103A4000021018433860217B4FF4FE0C22894FF09E
:103A5000FE47208A4902084B521E267DA1F50071BF
:103A600089B2401EC2F3080220331143761E0CEACD
:103A7000004005E053E0000010440258004802589E
:103A8000014307EA0662181F114319601A1D0168F5
:103A900021F00101016011684FF6F876236AB14305
:103AA00041EAC30111600168A26921F00C011143D0
:103AB00001600168E26921F00201114301600168BF
:103AC00041F480310160016841F400310160016816
:103AD00041F480210160016841F001010160286822
:103AE00040F08070286001E013E01AE0FEF732FD3C
:103AF000044604E0FEF72EFD001B022809D82868C2
:103B00008001F7D50BE000BFFEF724FD001B022863
:103B100002D90320BDE8F09F28688001F4D400207A
:103B2000F8E70120F6E7401EB0F1807F10B501D321
:103B3000012010BD4FF0E02460610F21601702F0FA
:103B40006AF90020A0610721216110BD704770470C
:103B50007047000070B590F83C20012A24D0134C27
:103B6000012580F83C50022280F83D20026853680D
:103B7000A242966802D00E4CA24203D14C6823F4B4
:103B8000700323430C6823F0700389681C4354605E
:103B9000002326F0800602683143916080F83D5092
:103BA00080F83C30184670BD022070BD0000014016
:103BB0000004014010B5040003D094F83D0010B19A
:103BC00007E0012010BD002084F83C00204600F0F2
:103BD0000DF8022084F83D002068211D00F06EFFE2
:103BE000012084F83D00002010BD000010B586B013
:103BF000044614216846FCF7A3FB16492068884256
:103C000026D11548016841F002010160006800F00A
:103C10000200059010480838016841F00801016071
:103C200000680021042200F00800059002200092A4
:103C3000CDE90101CDE9031008486946FEF786FB8E
:103C400000221D201146FEF7FBFC1D20FEF7EAFCBA
:103C500006B010BD00040040E8440258000C0258B1
:103C600070B5044690F83C00012814D0394B01256A
:103C700084F83C50022084F83D0022689068184087
:103C800020F47F4090600868702828D010DC10F085
:103C90000F0F03D04BE04FF0020070BD4FEA20122F
:103CA000072A44D2DFE802F05151515149323A001B
:103CB000B0F1101F49D009DCB0F5805F37D0B0F506
:103CC000005F17D0B0F5801F31D13EE0A0F5801124
:103CD00020393AD0102938D0202928D135E04A6837
:103CE0002068D1E9021300F04BFF2068816841F0A1
:103CF000770109E04A682068D1E9021300F040FF2B
:103D00002068816841F48041816010E0CA68496898
:103D1000206800F049FF2068502106E0CA68496821
:103D2000206800F052FF2068602100F033FF00207F
:103D300084F83D5084F83C0070BDCA68496820682A
:103D400000F032FF20684021EFE72268014610466C
:103D5000EBE7000088FFCEFF704770B504460068AF
:103D600000250169C943890715D4C168C94389077A
:103D700011D4EA1E02610121217720688069800741
:103D8000204602D0FFF7E8FF04E000F0A7F8204645
:103D900000F0A5F8257720680169C943490717D4C1
:103DA000C168C943490713D402216FF004020261BC
:103DB00021772068806910F4407F204602D0FFF709
:103DC000CBFF04E000F08AF8204600F088F8257761
:103DD00020680169C943090716D4C168C9430907A6
:103DE00012D404216FF00802026121772068C069B3
:103DF0008007204602D0FFF7AFFF04E000F06EF826
:103E0000204600F06CF8257720680169C943C9068F
:103E100017D4C168C943C90613D408216FF0100232
:103E2000026121772068C06910F4407F204602D0EB
:103E3000FFF792FF04E000F051F8204600F04FF841
:103E4000257720680169C943C90708D1C168C943FA
:103E5000C90704D1891E0161204600F041F820689D
:103E60000169C943090609D4C168C943090605D4D3
:103E70006FF0800101612046FFF769FE206801694B
:103E8000C943C90509D4C168C943090605D46FF4FB
:103E9000807101612046FFF759FE20680169C9431E
:103EA000490609D4C168C943490605D46FF04001E9
:103EB0000161204600F015F820680169C9438906B0
:103EC0000BD4C168C943890607D46FF02001016192
:103ED0002046BDE87040FFF73BBE70BD704770479D
:103EE0007047704730B590F87C10012918D0012236
:103EF00080F87C202421C0F880100022202450F873
:103F0000601B0B680D6823F0005325F001050D6060
:103F1000426050F8601C0B6004620277104630BDAE
:103F2000022030BD704770B5044690F87C0001282F
:103F30001DD0012284F87C202420C4F88000206851
:103F40000568026822F0010202602068826822F09F
:103F500060620A438260204600F050FE2268202101
:103F600000201560C4F8801084F87C0070BD022029
:103F700070BD70B5044690F87C0001281DD0012268
:103F800084F87C202420C4F880002068056802683A
:103F900022F0010202602068826822F060420A4337
:103FA0008260204600F02AFE226820210020156051
:103FB000C4F8801084F87C0070BD022070BD70478A
:103FC000704770472DE9F041036804460025D86921
:103FD0001A68996810F00F0F69D05F4E02F490775D
:103FE0000E4037437DD0C70709D0D70507D5012735
:103FF0001F62D4F8883043F00103C4F88830830787
:104000000AD5CB0708D0276802233B62D4F8883052
:1040100043F00403C4F8883043070AD5CB0708D01F
:10402000276804233B62D4F8883043F00203C4F8C5
:10403000883003070CD502F02003334308D02668EC
:1040400008233362D4F8883043F00803C4F888307A
:10405000D4F88830002B3CD0800609D502F020002F
:1040600001F08051084303D0E16E09B12046884732
:104070002168D4F888008968490601D400072AD548
:10408000204600F08BFE2068816849061ED58168B5
:1040900021F040018160A06FC0B130490165A06F7F
:1040A000FEF76EF8002814D0A06F016D0AE08606B6
:1040B00017D502F0200601F080573E4311D0E16E83
:1040C00024E02046BDE8F04108470AE02046FFF71B
:1040D00078FFBDE8F0812046FFF773FFC4F88850F1
:1040E000F7E7C60209D54E0207D54FF480101862D3
:1040F0002046BDE8F041FFF763BF060609D502F090
:10410000800601F400010E4303D0216F0029D8D1AD
:10411000DFE741060DD551060BD51A682021204650
:1041200022F040021A60C4F88010256700F022FADD
:10413000CFE7010206D5510004D52046BDE8F04185
:10414000FFF73DBFC001C4D5002AC2DA2046BDE852
:10415000F041FFF7E7BE000001000010874D0008A6
:1041600010B5040003D0D4F8800010B107E001209E
:1041700010BD002084F87C00204600F027F82420A1
:10418000C4F880002068016821F001010160204628
:1041900000F01CFF0128EBD0A06A10B1204600F00F
:1041A0005FFD2068416821F490414160206881688A
:1041B00021F02A0181602068016841F0010101605D
:1041C0002046BDE8104000F0AFBD000030B587B01C
:1041D000044614216846FCF7B3F8236800212B4DF0
:1041E0000224294A2A48AB4223D1274B08331D68B1
:1041F00045F480151D601B6803F480130593136854
:1042000043F00203136012680E2302F002020592CB
:104210004FF440520092CDE90141CDE903136946C4
:10422000FEF794F8002235201146FEF709FA3520F2
:1042300025E0184DAB4224D1134B10331D6845F0D7
:1042400010051D601B6803F010030593136843F00D
:10425000020313601268042302F0020205924FF475
:1042600040420092CDE90141CDE903136946FEF7D2
:104270006DF8002225201146FEF7E2F92520FEF711
:10428000D1F907B030BD0000E044025800500040B2
:10429000000402580010014070B5D0F88430202B83
:1042A0006CD1B9B1B2B190F87C30012B66D0846882
:1042B000012580F87C50002381652E03C366B4423B
:1042C000A0F85C20A0F85E204FF0FF0107D1046940
:1042D00014B11DE0012070BD40F2FF1118E04FF055
:1042E0007F059CB1B4F1805F15D0A0F86030222129
:1042F000C0F88830C0F8841001688C6844F001046C
:104300008C60416EB1F1005F0CD025E0046934B9D6
:10431000A0F86010EBE7016909B13F21F8E7A0F8C8
:104320006050E4E7B0F86810914215D88168B14256
:1043300001D1016971B11249C16680F87C30016810
:104340000A6842F480720A600068816841F0805116
:1043500081600FE00B49EFE78168B14201D101694B
:1043600051B10949C16680F87C300068016841F4A8
:1043700090710160002070BD0449F3E7022070BD18
:10438000294F0008254E0008C94E0008C54D0008F9
:104390002DE9F0411A49054600680026194C88426B
:1043A00015D1606BB0F5805F01D3666309E0164FED
:1043B0000121237A421C3B54626361812170E06BCE
:1043C000E06201220F4911480831FFF765FF1049EB
:1043D0002868884212D1206B182801D3266305E093
:1043E000094B411C627A183B1A5421630122BDE833
:1043F000F041044907480931FFF74EBFBDE8F0819D
:10440000001001400000002024200020F030002097
:1044100000500040643000202DE9F8430446D0F8F5
:1044200080001F4616460D46202852D1DDB1D6B178
:1044300094F87C0001284CD0012284F87C202121B2
:104440004FF00008C4F88880C4F880101834FEF7D4
:1044500081F8814654F8100CA687E687183CB0F521
:10446000805F03D004E00120BDE8F883206910B12B
:104470002E46002510E000260EE08021204601F0A7
:1044800091FCB8B9C6B116F8010B21688862B4F87E
:104490005600401EA4F85600B4F856004B464FF0A4
:1044A000000200970028E8D14FF04001204601F0BB
:1044B00079FC38B10320D7E735F8020B2168C0F347
:1044C0000800E3E72021C4F88010002084F87C80F5
:1044D000CAE70220C8E7000070B5D0F88030202B72
:1044E0003DD141B33AB390F87C30012B37D0466EC2
:1044F000012480F87C4000230367212501655030AA
:10450000B6F1005F8280C28083630563A0F1500032
:104510004FF48051826810D08A4201D10169E1B123
:104520001049016780F87C300068016841F0800123
:104530000160002070BD012070BD8A4201D1016977
:1045400049B10949016780F87C300068816841F40D
:1045500000018160EDE70549F4E70549E1E7022044
:1045600070BD0000115D0008515D0008B95C0008D5
:10457000755C00087047FEE710B51B2104460A4829
:1045800001F0FAFE08485B2101F0F6FE06482146DC
:1045900001F0F2FE04487A2101F0EEFEBDE8104081
:1045A00001480D2101F0E8BEF0300020114808B5A7
:1045B000016841F080010160016801F08001009113
:1045C000016841F002010160016801F002010091FF
:1045D000016841F001010160016801F001010091F1
:1045E000016841F008010160006800F008000090D7
:1045F00008BD0000E044025810B588B017480024F8
:10460000154900940194029403940494059406942B
:10461000C0E900148460C46004618461FFF7CAFAD1
:1046200008B1FDF7ABFD4FF400506946CDE9000439
:104630000A4802940394FFF713FB08B1FDF79EFDAF
:10464000064804A904940694FFF784FA002801D0D0
:10465000FDF794FD08B010BD000400402430002098
:104660001848002110B5164C0C224FF4E1330460B9
:10467000C0E90131C160C0E904128161C161016218
:1046800041628162FFF76CFD08B1FDF777FD0D48CF
:104690000021FFF76EFC08B1FDF770FD094800210D
:1046A000FFF741FC08B1FDF769FD0648FFF71AFC6A
:1046B000002803D0BDE81040FDF760BD10BD00002C
:1046C00000500040643000201848002110B5164CFE
:1046D0000C224FF416530460C0E90131C160C0E9F7
:1046E00004128161C161016241628162FFF738FD9C
:1046F00008B1FDF743FD0D480021FFF73AFC08B172
:10470000FDF73CFD09480021FFF70DFC08B1FDF75E
:1047100035FD0648FFF7E6FB002803D0BDE8104052
:10472000FDF72CBD10BD000000100140F03000204E
:10473000FEE77047704700002DE9F047454D0446FD
:1047400089464FF0000A2868C04380070AD0414ECE
:10475000283E306820F080603060FDF7FBFE0746A1
:10476000B04608E00120BDE8F08700BFFDF7F2FE8B
:10477000C01B022867D8D8F800000001F6D42068D2
:1047800029684FF4FE0721F47C313E0241EA0030F3
:104790002860207AA389B4F804C040022D4D2D4929
:1047A0005B1E227CACF1010C1035091DA0F50070D8
:1047B00080B2521ECCF3080C07EA034340EA0C0017
:1047C000184306EA0262104328600868626920F014
:1047D000C000104308600A68A06922F0200202436A
:1047E0000A60281D0A6822F010020A6002684FF66B
:1047F000F873E4699A4342EAC40202600868B9F1B6
:10480000000F40F010020A6011D00868B9F1010FE2
:1048100011D040F400100860D8F80000444640F081
:104820008060C8F80000FDF795FE05460DE00868B9
:1048300040F40020EFE740F48010ECE7FDF78AFE3B
:10484000401B022801D903208DE720680001F5D51F
:10485000504688E7284402582DE9F047454D044664
:1048600089464FF0000A2868C04380070AD0414EAD
:10487000283E306820F080503060FDF76BFE074620
:10488000B04608E00120BDE8F08700BFFDF762FEFA
:10489000C01B022867D8D8F800008000F6D4208812
:1048A00029684FF4FE0721F07C713E0241EA005076
:1048B0002860207AA389B4F804C040022D4D2D4908
:1048C0005B1E227CACF1010C1835091DA0F50070AF
:1048D00080B2521ECCF3080C07EA034340EA0C00F6
:1048E000184306EA0262104328600868626920F4EF
:1048F0004060104308600A68A06922F40072024315
:104900000A60281D0A6822F480720A6002684FF665
:10491000F873E4699A4342EAC40202600868B9F194
:10492000000F40F480720A6011D00868B9F1010FDD
:1049300011D040F080700860D8F80000444640F084
:104940008050C8F80000FDF705FE05460DE0086838
:1049500040F48000EFE740F40000ECE7FDF7FAFDDB
:10496000401B022801D903208DE720688000F5D57F
:10497000504688E7284402587047FDF7F1BD000013
:1049800010B5CCB04C212FA8FBF7DAFC202142A8AF
:10499000FBF7D6FCBC216846FBF7D2FC0220FDF7F2
:1049A00081FE1A491A480A6822F001020A60096861
:1049B0000168002421F4404141F480410160016814
:1049C00001F440414A9101688904FCD501203894E2
:1049D0000104CDE92F012FA8FEF74AFE42AA3F208D
:1049E000022182E813000021459442A8469447948E
:1049F00048944994FEF746FC03201E941D940090B1
:104A00006846FDF7E3FF4CB010BD00002C040058D1
:104A100018480258214A30B5214914680020204B1B
:104A200044F47004146010330A681E4D42F0010211
:104A30000A6018600A681A4B2A400A6018331C1D65
:104A4000251D174A186028322060131D28601C1D80
:104A5000251D10602A1D1860131D20601C1D286074
:104A6000251D10601860206028600A680C4B0E4CF1
:104A700022F4802260330A60186020686FF30F0010
:104A8000B0F1005F03D209490120C1F808014FF0DD
:104A9000006002498039086030BD000088ED00E008
:104AA000004402587FEDF6EA0010005C00800051DF
:104AB0000148FFF752B90000243000202DE9F047EB
:104AC000274B4FF0804A274D02689842264E274FC9
:104AD000274C09D0504507D0A84205D0B04203D09A
:104AE000B84201D0A04205D1D1F804C022F0700232
:104AF0004CEA0202DFF87CC0DFF87C809842DFF8E5
:104B00007C900FD050450DD0A8420BD0B04209D0B8
:104B1000B84207D0A04205D0604503D0404501D03F
:104B2000484503D1CD6822F440722A434D6922F0F2
:104B300080022A43026098428A68C2620A688262DE
:104B400007D0A04205D0604503D0404501D048457C
:104B500001D10969016301214161BDE8F0870000CD
:104B6000000001400004004000080040000C00402C
:104B70000004014000400140004401400048014061
:104B800042EA032283680A4323F47F410A43826096
:104B900070470000034B82681A400A4342F0070145
:104BA000816070478FFFCFFF10B5036A046A23F05E
:104BB0000A0324F00104046284690B4324F0F00129
:104BC00041EA02118161036210BD10B5036A23F04E
:104BD000100303628369046A23F4704324F0A00481
:104BE00043EA0232826144EA0111016210BD000011
:104BF0000148FFF7E7B90000643000203FB514A179
:104C0000D1E9002314A1CDE90023D1E90021CDE9A8
:104C10000221416EB9B1016802AC8A688968C2F3A9
:104C20004262490F1DF80150615CED00B5FBF1F1E6
:104C3000A0F86A101DF80210A25CC900B1FBF2F1E5
:104C4000A0F868103FBD0121A0F86A10F8E7000045
:104C50000101010307010000080402040801010129
:104C600090F82810C90706D00168C36A4A6822F480
:104C700000321A434A6090F82810890706D5016867
:104C8000036B4A6822F480321A434A6090F8281075
:104C9000490706D50168436B4A6822F480221A430B
:104CA0004A6090F82810090706D50168836B4A68A6
:104CB00022F400421A434A6090F82810C90606D52B
:104CC0000168C36B8A6822F480521A438A6090F8A4
:104CD0002810890606D50168036C8A6822F4005200
:104CE0001A438A6090F82810490611D50168436C70
:104CF0004A6822F480121A434A60416CB1F5801F61
:104D000006D10168836C4A6822F4C0021A434A60E3
:104D100090F82810090606D50168C26C486820F48E
:104D20000020104348607047F8B500260446C0F8DC
:104D30008860FDF70FFC054620686FF07E4700682D
:104D4000000708D500222B464FF40011204600979B
:104D500001F028F860B92068006840070AD50022F1
:104D60002B464FF480012046009701F01BF808B154
:104D70000320F8BD2020C4F8800084F87C60C4F8CB
:104D800084000020F8BD10B5806B0021A0F85E10F3
:104D9000A0F85610FFF715F910BD000030B50168F6
:104DA0002023074D00240A6822F490720A600168EB
:104DB0008A682A408A60C0F88430C46630BD00002A
:104DC000FEFFFFEF10B5D0F88410B0F86020222964
:104DD000016804D0886940F00800886110BD496A04
:104DE000836D11401980816D891C8165B0F85E105A
:104DF000491EA0F85E10B0F85E100029EED10168DF
:104E0000202200230C6824F490740C6001688C68E4
:104E100024F001048C60C0F88420C366FFF7B8FA60
:104E200010BD00002DE9F0410446D0F8840022288E
:104E3000B4F8606006D02068816941F008018161A2
:104E4000BDE8F081B4F8685023E02068A16D406AA5
:104E500030400880A06D801CA065B4F85E00401E44
:104E6000A4F85E00B4F85E0088B9206820221449D6
:104E70000023076827F480770760206887680F4061
:104E80008760C4F884202046E366FFF781FA6D1E30
:104E9000ADB2002DD9D1B4F85E000028D0D0B4F85E
:104EA00068108142CCD92068816821F080518160EE
:104EB0000448E0662068016841F020010160BFE716
:104EC000FEFFFFEFC54D000810B5D0F88410B0F814
:104ED00060202229016804D0886940F008008861B8
:104EE00010BD496A836D11401970816D491C81653F
:104EF000B0F85E10491EA0F85E10B0F85E100029F0
:104F0000EED10168202200230C6824F490740C6018
:104F100001688C6824F001048C60C0F88420C366AA
:104F2000FFF736FA10BD00002DE9F0410446D0F835
:104F300084002228B4F8606006D02068816941F0BE
:104F400008018161BDE8F081B4F8685023E0206871
:104F5000A16D406A30400870A06D401CA065B4F897
:104F60005E00401EA4F85E00B4F85E0088B92068B8
:104F7000202214490023076827F4807707602068FF
:104F800087680F408760C4F884202046E366FFF7F7
:104F9000FFF96D1EADB2002DD9D1B4F85E00002826
:104FA000D0D0B4F868108142CCD92068816821F053
:104FB000805181600448E0662068016841F020016A
:104FC0000160BFE7FEFFFFEFC94E00082DE9F04F7B
:104FD000C2690446816887B00068D4E90457F84E76
:104FE000636E2943056817433943F64A0B434FF074
:104FF000000835401D4305602068E368416821F4DE
:105000004051194341602568A069954201D0216A49
:105010000843AB68EC4FED4EED493B400343AB60BA
:105020002068656AC36A23F00F032B43C3622068BC
:10503000B0420ED1096801F03801182973D047DC5D
:10504000B9B3082979D010296FD178E028297ED109
:105050007BE0E04B984209D1096801F0070106297D
:1050600075D2DFE801F0546A6C6E7072DA4B9842C8
:1050700009D1096801F00701062968D2DFE801F0CB
:10508000475D5F616365D54B984209D1096801F0BE
:10509000070106295BD2DFE801F03A505254565816
:1050A000CF4B98420BD1096801F0070106294ED277
:1050B00000E010E0DFE801F02B4143454749C94BD0
:1050C00098420AD1096801F03801182939D0B7DDB2
:1050D0002029BBD137E001273AE0C34B984209D1E0
:1050E000096801F00701062931D2DFE801F0102636
:1050F000282A2C2EBD4B98420BD1096801F00701DC
:10510000062924D2DFE801F003191B1D1F21002707
:105110001EE090421BD1AE49091D096801F007014C
:10512000062914D202E00CE007E010E0DFE801F00D
:10513000030507090B0D02270AE0042708E00827EA
:1051400006E0102704E0202702E0402700E0802747
:10515000DFF89CA2DFF89CB290424FF480754FF0CC
:1051600000097AD1102F51D006DC022F09D0042F6C
:1051700027D0082F72D12DE0202F70D0402F6DD175
:10518000F0E0FDF7CDFA0146606A1FE0012827D064
:10519000022827D0032827D0042827D0052827D085
:1051A000062827D0072827D0082827D0092827D065
:1051B0000A2827D00B2827D00AE000BFB1FBF0F067
:1051C0007EE06846FDF7BEFA606A01990028DDD1ED
:1051D0000120F3E703A8FDF757FB606A0499F5E7A0
:1051E0000220EBE70420E9E70620E7E70820E5E7EF
:1051F0000A20E3E70C20E1E71020DFE72020DDE7CD
:105200004020DBE78020D9E72846D7E7DBF800001D
:1052100059468006606A39D50968C1F3C1012AFA86
:1052200001F2A8B101281BD002281BD003281BD0F3
:1052300004281BD005281BD006281BD007281BD00C
:1052400008281BD009281BD00A281BD00B281BD0EC
:105250005FF00100B2FBF0F032E076E2A2E050E055
:105260000220F7E70420F5E70620F3E70820F1E73E
:105270000A20EFE70C20EDE71020EBE72020E9E71C
:105280004020E7E78020E5E72846E3E7A8B10128CA
:1052900021D0022821D0032821D0042821D005289C
:1052A00021D0062821D0072821D0082821D009287C
:1052B00021D00A2821D00B2821D00120BAFBF0F000
:1052C00000286ED0666806EB460181426AD8B0EBD2
:1052D000063F67D89DE00220F0E70420EEE70620B5
:1052E000ECE70820EAE70A20E8E70C20E6E71020D0
:1052F000E4E72020E2E74020E0E78020DEE72846E0
:10530000DCE7606AA8B1012816D0022816D003286D
:1053100016D0042816D0052816D0062816D007283F
:1053200016D0082816D0092816D00A2816D00B281F
:1053300016D00120304941E70220FBE70420F9E7BD
:105340000620F7E70820F5E70A20F3E70C20F1E74D
:105350001020EFE72020EDE74020EBE78020E9E791
:105360002846E7E7606AA8B1012818D002281AD0B9
:1053700003281AD004281AD005281AD006281AD0D3
:1053800007281AD0082839D0092839D00A2839D056
:105390000B2839D05FF001004FF400410EE70220E6
:1053A000FAE7BFE232E00420F6E70620F4E708203F
:1053B000F2E70A20F0E70C20EEE71020ECE700000F
:1053C000F369FFCF000C0058FFF4FF1100100140FB
:1053D000544402580044004000480040004C004043
:1053E000005000400014014000780040007C004064
:1053F0000090D0030044025800093D002020CBE774
:105400004020C9E78020C7E72846C5E74FF00108DC
:1054100088E2102F7CD023DC022F4ED0042F78D0CE
:10542000082FF3D103A8FDF72FFA0499606AA8B1F9
:1054300001286FD002286ED003286DD004286CD0CC
:1054400005286BD006286AD0072869D0082868D0BC
:10545000092867D00A286ED00B2800D001259AE0D1
:10546000202F69D0402FD1D1606AA8B101286ED019
:1054700002286DD003286CD004286BD005286AD090
:10548000062869D0072868D0082867D009286FD077
:105490000A286ED00B2800D001254F4600232A464B
:1054A0004FF400400021FAF713FF02467008130E74
:1054B0001202101843EA0121ADE0FDF731F9074669
:1054C000606A4E464946A8B101282CD002282CD04B
:1054D00003282CD004282CD005282ED006282ED026
:1054E00007282ED008282ED009282ED00A2836D0FA
:1054F0000B2800D00125384600232A46FAF7E8FE9B
:105500006268090241EA1061034650081B024FE03D
:1055100051E026E02AE02DE02EE02FE030E031E0FF
:1055200032E033E034E00225E5E70425E3E7062531
:10553000E1E70825DFE72DE0BEE00A25DBE70C25E3
:10554000D9E71025D7E72025D5E74025D3E7E6E0C2
:10555000E7E0E8E0E9E0EAE0EBE0ECE0EDE0802520
:10556000C9E76846FDF7EEF801995FE7022512E00A
:10557000E5E0E6E004250EE006250CE008250AE05B
:105580000A2508E00C2506E0102504E0202502E0AD
:10559000402500E080254E4600232A46084619464D
:1055A000FAF796FE62680902030241EA10615008A8
:1055B0001818714131E0DBF800105846890649D5CA
:1055C0000068C0F3C1002AFA00F1606AA8B101289E
:1055D0002CD002282CD003282CD004282CD005282D
:1055E0002CD006282CD007282CD008282CD009280D
:1055F0002CD00A282CD00B2800D001254F460023A0
:105600002A4608461946FAF763FE090272080302A1
:1056100041EA10619818324679410023FAF758FEA2
:10562000FE49A0F540728A4270D9EFE60225E5E70F
:105630000425E3E70625E1E70825DFE70A25DDE79E
:105640000C25DBE71025D9E72025D7E74025D5E74E
:105650008025D3E7606AA8B1012819D0022819D0A3
:10566000032819D0042819D0052819D0062819D0E4
:10567000072819D0082819D0092819D00A2819D0C4
:105680000B2800D001254F4600232A46504609E743
:105690000225F8E70425F6E70625F4E70825F2E7F2
:1056A0000A25F0E70C25EEE71025ECE72025EAE7D0
:1056B0004025E8E78025E6E7606AA8B1012819D00F
:1056C000022819D0032819D0042819D0052819D088
:1056D000062819D007281AD008281AD009281AD065
:1056E0000A281AD00B2800D00125CD4800234F46A8
:1056F0002A46D7E60225F8E70425F6E70625F4E76B
:105700000825F2E70A25F0E70C25EEE71BE0102557
:10571000EBE72025E9E74025E7E78025E5E70225D7
:10572000BBE60425B9E60625B7E60825B5E60A2551
:10573000B3E60C25B1E61025AFE62025ADE6402501
:10574000ABE68025A9E62168EBE0E0694FF4004173
:105750004FF6EF7688426FD1082F65D00BDC6FB320
:10576000012F5CD0042F7FF460AF6846FCF7EAFF9E
:10577000606A01995DE0102F5FD0202F7ED0402F0E
:10578000F1D1606AA8B1012879D0022878D0032825
:1057900077D0042876D0052875D0062874D007283D
:1057A00073D0082872D0092871D00A2870D00B282D
:1057B00000D001256068B1FBF5F1A0E0FDF798FE8F
:1057C0002FE0012815D0022815D0032815D0042871
:1057D00015D0052815D0062815D0072815D008287B
:1057E00015D0092815D00A2815D00B2814D001256A
:1057F00012E0022510E004250EE006250CE0082545
:105800000AE00A2508E00C2506E0102504E0202522
:1058100002E0402500E08025B1FBF5F13EE0FDF718
:1058200079FE0146606A04E003A8FDF72DF8606A7E
:1058300004990028DBD0C4E7E0E0DBF8000059461B
:105840008006606A40D50968C1F3C1012AFA01F2F5
:1058500008B3012824D0022824D0032824D0042807
:1058600024D0052824D0062824D0072824D00828AE
:1058700024D0092824D00A2824D00AE073E0A9E023
:10588000AAE0ABE0ACE0ADE0AEE0AFE0B0E0B1E0AC
:10589000B2E00B2800D00125B2FBF5F160682EE0E4
:1058A0000225F9E70425F7E70625F5E70825F3E7DC
:1058B0000A25F1E70C25EFE71025EDE72025EBE7BA
:1058C0004025E9E78025E7E7A8B1012837D002287D
:1058D00037D0032837D0042837D0052837D00628FA
:1058E00037D0072837D0082837D0092837D00A28DA
:1058F00037D00B2800D001256068BAFBF5F14900CC
:1059000001EB5001B1FBF0F080B2A0F11001B14207
:105910003FF68BAE4FF6F0732168C0F34202184099
:105920001043C8600120A4F86A00A4F8680040464B
:10593000C4F86C90C4F8709007B0BDE8F08F0225F1
:10594000DAE70425D8E70625D6E70825D4E70A25AF
:10595000D2E70C25D0E71025CEE72025CCE740255F
:10596000CAE78025C8E7606AA8B101281ED00228CE
:105970001ED003281ED004281ED005281ED00628BD
:105980001ED007281ED008281ED009281ED00A289D
:105990001ED00B2800D0012521486168B0FBF5F02E
:1059A000400000EB5100B0FBF1F0ADE70225F3E75A
:1059B0000425F1E70625EFE70825EDE70A25EBE7E3
:1059C0000C25E9E71025E7E72025E5E74025E3E793
:1059D0008025E1E70225EDE60425EBE60625E9E66C
:1059E0000825E7E60A25E5E60C25E3E61025E1E6CD
:1059F0002025DFE64025DDE68025DBE6082F6BD09D
:105A000010DC97B3012F62D0042F7FF40EAE6846EE
:105A1000FCF798FE606A019963E00000FFFC0F004C
:105A200000093D00102F5FD0202F7DD0402FECD1FA
:105A3000606AA8B1012878D0022877D0032876D0F0
:105A4000042875D0052874D0062873D0072872D092
:105A5000082871D0092870D00A286FD00B2800D0F0
:105A600001256068B1FBF5F1A0E0FFE7FDF740FD1F
:105A70002FE0012815D0022815D0032815D00428BE
:105A800015D0052815D0062815D0072815D00828C8
:105A900015D0092815D00A2815D00B2814D00125B7
:105AA00012E0022510E004250EE006250CE0082592
:105AB0000AE00A2508E00C2506E0102504E0202570
:105AC00002E0402500E08025B1FBF5F13DE0FDF767
:105AD00021FD0146606A04E003A8FCF7D5FE606A78
